{"abi":[{"type":"constructor","inputs":[],"stateMutability":"nonpayable"},{"type":"receive","stateMutability":"payable"},{"type":"function","name":"BPS","inputs":[],"outputs":[{"name":"","type":"uint256","internalType":"uint256"}],"stateMutability":"view"},{"type":"function","name":"FEE_BPS","inputs":[],"outputs":[{"name":"","type":"uint256","internalType":"uint256"}],"stateMutability":"view"},{"type":"function","name":"INITIAL_LIQUIDITY","inputs":[],"outputs":[{"name":"","type":"uint256","internalType":"uint256"}],"stateMutability":"view"},{"type":"function","name":"buyNo","inputs":[],"outputs":[],"stateMutability":"payable"},{"type":"function","name":"buyYes","inputs":[],"outputs":[],"stateMutability":"payable"},{"type":"function","name":"category","inputs":[],"outputs":[{"name":"","type":"string","internalType":"string"}],"stateMutability":"view"},{"type":"function","name":"claimWinnings","inputs":[],"outputs":[],"stateMutability":"nonpayable"},{"type":"function","name":"createdAt","inputs":[],"outputs":[{"name":"","type":"uint256","internalType":"uint256"}],"stateMutability":"view"},{"type":"function","name":"creator","inputs":[],"outputs":[{"name":"","type":"address","internalType":"address"}],"stateMutability":"view"},{"type":"function","name":"description","inputs":[],"outputs":[{"name":"","type":"string","internalType":"string"}],"stateMutability":"view"},{"type":"function","name":"endTime","inputs":[],"outputs":[{"name":"","type":"uint256","internalType":"uint256"}],"stateMutability":"view"},{"type":"function","name":"estimateBuyNo","inputs":[{"name":"amount","type":"uint256","internalType":"uint256"}],"outputs":[{"name":"","type":"uint256","internalType":"uint256"}],"stateMutability":"view"},{"type":"function","name":"estimateBuyYes","inputs":[{"name":"amount","type":"uint256","internalType":"uint256"}],"outputs":[{"name":"","type":"uint256","internalType":"uint256"}],"stateMutability":"view"},{"type":"function","name":"factory","inputs":[],"outputs":[{"name":"","type":"address","internalType":"address"}],"stateMutability":"view"},{"type":"function","name":"getMarketInfo","inputs":[],"outputs":[{"name":"_question","type":"string","internalType":"string"},{"name":"_description","type":"string","internalType":"string"},{"name":"_category","type":"string","internalType":"string"},{"name":"_creator","type":"address","internalType":"address"},{"name":"_endTime","type":"uint256","internalType":"uint256"},{"name":"_yesPrice","type":"uint256","internalType":"uint256"},{"name":"_noPrice","type":"uint256","internalType":"uint256"},{"name":"_totalVolume","type":"uint256","internalType":"uint256"},{"name":"_participantCount","type":"uint256","internalType":"uint256"},{"name":"_status","type":"uint8","internalType":"enum PredictionMarket.MarketStatus"},{"name":"_resolvedOutcome","type":"uint8","internalType":"enum PredictionMarket.Outcome"}],"stateMutability":"view"},{"type":"function","name":"getNoPrice","inputs":[],"outputs":[{"name":"","type":"uint256","internalType":"uint256"}],"stateMutability":"view"},{"type":"function","name":"getYesPrice","inputs":[],"outputs":[{"name":"","type":"uint256","internalType":"uint256"}],"stateMutability":"view"},{"type":"function","name":"hasClaimed","inputs":[{"name":"","type":"address","internalType":"address"}],"outputs":[{"name":"","type":"bool","internalType":"bool"}],"stateMutability":"view"},{"type":"function","name":"initialize","inputs":[{"name":"_creator","type":"address","internalType":"address"},{"name":"_oracle","type":"address","internalType":"address"},{"name":"_question","type":"string","internalType":"string"},{"name":"_description","type":"string","internalType":"string"},{"name":"_category","type":"string","internalType":"string"},{"name":"_endTime","type":"uint256","internalType":"uint256"}],"outputs":[],"stateMutability":"nonpayable"},{"type":"function","name":"isParticipant","inputs":[{"name":"","type":"address","internalType":"address"}],"outputs":[{"name":"","type":"bool","internalType":"bool"}],"stateMutability":"view"},{"type":"function","name":"noPool","inputs":[],"outputs":[{"name":"","type":"uint256","internalType":"uint256"}],"stateMutability":"view"},{"type":"function","name":"noShares","inputs":[{"name":"","type":"address","internalType":"address"}],"outputs":[{"name":"","type":"uint256","internalType":"uint256"}],"stateMutability":"view"},{"type":"function","name":"oracle","inputs":[],"outputs":[{"name":"","type":"address","internalType":"address"}],"stateMutability":"view"},{"type":"function","name":"participantCount","inputs":[],"outputs":[{"name":"","type":"uint256","internalType":"uint256"}],"stateMutability":"view"},{"type":"function","name":"question","inputs":[],"outputs":[{"name":"","type":"string","internalType":"string"}],"stateMutability":"view"},{"type":"function","name":"resolve","inputs":[{"name":"_outcome","type":"uint8","internalType":"enum PredictionMarket.Outcome"}],"outputs":[],"stateMutability":"nonpayable"},{"type":"function","name":"resolvedOutcome","inputs":[],"outputs":[{"name":"","type":"uint8","internalType":"enum PredictionMarket.Outcome"}],"stateMutability":"view"},{"type":"function","name":"sellNo","inputs":[{"name":"sharesToSell","type":"uint256","internalType":"uint256"}],"outputs":[],"stateMutability":"nonpayable"},{"type":"function","name":"sellYes","inputs":[{"name":"sharesToSell","type":"uint256","internalType":"uint256"}],"outputs":[],"stateMutability":"nonpayable"},{"type":"function","name":"status","inputs":[],"outputs":[{"name":"","type":"uint8","internalType":"enum PredictionMarket.MarketStatus"}],"stateMutability":"view"},{"type":"function","name":"totalFees","inputs":[],"outputs":[{"name":"","type":"uint256","internalType":"uint256"}],"stateMutability":"view"},{"type":"function","name":"totalNoSharesMinted","inputs":[],"outputs":[{"name":"","type":"uint256","internalType":"uint256"}],"stateMutability":"view"},{"type":"function","name":"totalVolume","inputs":[],"outputs":[{"name":"","type":"uint256","internalType":"uint256"}],"stateMutability":"view"},{"type":"function","name":"totalYesSharesMinted","inputs":[],"outputs":[{"name":"","type":"uint256","internalType":"uint256"}],"stateMutability":"view"},{"type":"function","name":"yesPool","inputs":[],"outputs":[{"name":"","type":"uint256","internalType":"uint256"}],"stateMutability":"view"},{"type":"function","name":"yesShares","inputs":[{"name":"","type":"address","internalType":"address"}],"outputs":[{"name":"","type":"uint256","internalType":"uint256"}],"stateMutability":"view"},{"type":"event","name":"LiquidityAdded","inputs":[{"name":"provider","type":"address","indexed":true,"internalType":"address"},{"name":"amount","type":"uint256","indexed":false,"internalType":"uint256"}],"anonymous":false},{"type":"event","name":"MarketResolved","inputs":[{"name":"outcome","type":"uint8","indexed":false,"internalType":"enum PredictionMarket.Outcome"},{"name":"timestamp","type":"uint256","indexed":false,"internalType":"uint256"}],"anonymous":false},{"type":"event","name":"SharesBought","inputs":[{"name":"buyer","type":"address","indexed":true,"internalType":"address"},{"name":"isYes","type":"bool","indexed":false,"internalType":"bool"},{"name":"amount","type":"uint256","indexed":false,"internalType":"uint256"},{"name":"shares","type":"uint256","indexed":false,"internalType":"uint256"},{"name":"newYesPrice","type":"uint256","indexed":false,"internalType":"uint256"},{"name":"newNoPrice","type":"uint256","indexed":false,"internalType":"uint256"}],"anonymous":false},{"type":"event","name":"SharesSold","inputs":[{"name":"seller","type":"address","indexed":true,"internalType":"address"},{"name":"isYes","type":"bool","indexed":false,"internalType":"bool"},{"name":"shares","type":"uint256","indexed":false,"internalType":"uint256"},{"name":"payout","type":"uint256","indexed":false,"internalType":"uint256"},{"name":"newYesPrice","type":"uint256","indexed":false,"internalType":"uint256"},{"name":"newNoPrice","type":"uint256","indexed":false,"internalType":"uint256"}],"anonymous":false},{"type":"event","name":"WinningsClaimed","inputs":[{"name":"user","type":"address","indexed":true,"internalType":"address"},{"name":"amount","type":"uint256","indexed":false,"internalType":"uint256"}],"anonymous":false}],"bytecode":{"object":"0x608060405234801561000f575f80fd5b505f80546001600160a01b03191633179055611c358061002e5f395ff3fe60806040526004361061020a575f3560e01c80637284e41611610113578063a9709c0c1161009d578063c45a01551161006d578063c45a01551461059b578063c545ab54146105b9578063cf09e0d0146105d8578063ded96d48146105ed578063ef430aa61461060c575f80fd5b8063a9709c0c1461054c578063aa3c901214610554578063b401faf114610573578063bf333f2c14610587575f80fd5b80638779086f116100e35780638779086f146104ce578063929066f5146104e25780639e07544914610510578063a0270dbc14610518578063a3b5afb114610537575f80fd5b80637284e4161461043257806373b2e80e146104465780637dc0d1d014610484578063818fa941146104a3575f80fd5b8063249d39e91161019457806355097bf11161016457806355097bf1146103ac57806356bc793e146103c85780635f81a57c146103f3578063649db1eb146104085780636f1d4ea41461041d575f80fd5b8063249d39e91461034c5780633197cbb614610361578063362f04c0146103765780633fad9ae01461038b575f80fd5b806313114a9d116101da57806313114a9d146102a95780631c371e2b146102be5780631cbe99f6146102e9578063200d2ed21461030857806323341a0514610321575f80fd5b806302d05d3f146102155780630ecc4ab81461025157806311f957fd1461027457806312b01b1614610295575f80fd5b3661021157005b5f80fd5b348015610220575f80fd5b50600154610234906001600160a01b031681565b6040516001600160a01b0390911681526020015b60405180910390f35b34801561025c575f80fd5b5061026660135481565b604051908152602001610248565b34801561027f575f80fd5b5061029361028e366004611711565b610620565b005b3480156102a0575f80fd5b5061026661082f565b3480156102b4575f80fd5b50610266600f5481565b3480156102c9575f80fd5b50600a546102dc90610100900460ff1681565b6040516102489190611758565b3480156102f4575f80fd5b50610266610303366004611711565b610872565b348015610313575f80fd5b50600a546102dc9060ff1681565b34801561032c575f80fd5b506103356108e5565b6040516102489b9a999897969594939291906117ae565b348015610357575f80fd5b5061026661271081565b34801561036c575f80fd5b5061026660065481565b348015610381575f80fd5b5061026660105481565b348015610396575f80fd5b5061039f610af8565b6040516102489190611849565b3480156103b7575f80fd5b50610266683635c9adc5dea0000081565b3480156103d3575f80fd5b506102666103e236600461187d565b600c6020525f908152604090205481565b3480156103fe575f80fd5b50610266600e5481565b348015610413575f80fd5b5061026660125481565b348015610428575f80fd5b5061026660085481565b34801561043d575f80fd5b5061039f610b84565b348015610451575f80fd5b5061047461046036600461187d565b600d6020525f908152604090205460ff1681565b6040519015158152602001610248565b34801561048f575f80fd5b50600254610234906001600160a01b031681565b3480156104ae575f80fd5b506102666104bd36600461187d565b600b6020525f908152604090205481565b3480156104d9575f80fd5b50610266610b91565b3480156104ed575f80fd5b506104746104fc36600461187d565b60116020525f908152604090205460ff1681565b610293610bc4565b348015610523575f80fd5b50610293610532366004611896565b610df1565b348015610542575f80fd5b5061026660095481565b610293610f70565b34801561055f575f80fd5b5061026661056e366004611711565b61115f565b34801561057e575f80fd5b506102936111c7565b348015610592575f80fd5b5061026660c881565b3480156105a6575f80fd5b505f54610234906001600160a01b031681565b3480156105c4575f80fd5b506102936105d3366004611711565b6113c7565b3480156105e3575f80fd5b5061026660075481565b3480156105f8575f80fd5b506102936106073660046118f9565b61158e565b348015610617575f80fd5b5061039f6116ac565b5f600a5460ff16600281111561063857610638611728565b1461065e5760405162461bcd60e51b8152600401610655906119b3565b60405180910390fd5b600654421061067f5760405162461bcd60e51b8152600401610655906119de565b335f908152600b60205260409020548111156106d35760405162461bcd60e51b8152602060048201526013602482015272496e73756666696369656e742073686172657360681b6044820152606401610655565b5f6009546008546106e49190611a18565b90505f826008546106f59190611a35565b90505f6107028284611a48565b90505f816009546107139190611a67565b90505f61271061072460c884611a18565b61072e9190611a48565b90505f61073b8284611a67565b905081600f5f82825461074e9190611a35565b909155505060088590556009849055335f908152600b60205260408120805489929061077b908490611a67565b925050819055508660125f8282546107939190611a67565b9091555050604051339082156108fc029083905f818181858888f193505050501580156107c2573d5f803e3d5ffd5b50337fb4b79f6f79e53b0740155e9e6cfddecf7e56fff4cdc26359fd1a536253d9bf61600189846107f1610b91565b6107f961082f565b6040805195151586526020860194909452928401919091526060830152608082015260a00160405180910390a250505050505050565b5f806009546008546108419190611a35565b9050805f0361085257603291505090565b8060085460646108629190611a18565b61086c9190611a48565b91505090565b5f8061271061088260c885611a18565b61088c9190611a48565b90505f6108998285611a67565b90505f6009546008546108ac9190611a18565b90505f826009546108bd9190611a35565b90505f6108ca8284611a48565b9050806008546108da9190611a67565b979650505050505050565b60608060605f805f805f805f8060036004600560015f9054906101000a90046001600160a01b0316600654610918610b91565b61092061082f565b600e54601054600a54895460ff80831692610100900416908b9061094390611a7a565b80601f016020809104026020016040519081016040528092919081815260200182805461096f90611a7a565b80156109ba5780601f10610991576101008083540402835291602001916109ba565b820191905f5260205f20905b81548152906001019060200180831161099d57829003601f168201915b50505050509a508980546109cd90611a7a565b80601f01602080910402602001604051908101604052809291908181526020018280546109f990611a7a565b8015610a445780601f10610a1b57610100808354040283529160200191610a44565b820191905f5260205f20905b815481529060010190602001808311610a2757829003601f168201915b50505050509950888054610a5790611a7a565b80601f0160208091040260200160405190810160405280929190818152602001828054610a8390611a7a565b8015610ace5780601f10610aa557610100808354040283529160200191610ace565b820191905f5260205f20905b815481529060010190602001808311610ab157829003601f168201915b505050505098509a509a509a509a509a509a509a509a509a509a509a50909192939495969798999a565b60038054610b0590611a7a565b80601f0160208091040260200160405190810160405280929190818152602001828054610b3190611a7a565b8015610b7c5780601f10610b5357610100808354040283529160200191610b7c565b820191905f5260205f20905b815481529060010190602001808311610b5f57829003601f168201915b505050505081565b60048054610b0590611a7a565b5f80600954600854610ba39190611a35565b9050805f03610bb457603291505090565b8060095460646108629190611a18565b5f600a5460ff166002811115610bdc57610bdc611728565b14610bf95760405162461bcd60e51b8152600401610655906119b3565b6006544210610c1a5760405162461bcd60e51b8152600401610655906119de565b5f3411610c5a5760405162461bcd60e51b815260206004820152600e60248201526d26bab9ba1039b2b73210282420a960911b6044820152606401610655565b5f612710610c6960c834611a18565b610c739190611a48565b90505f610c808234611a67565b905081600f5f828254610c939190611a35565b90915550506009546008545f91610ca991611a18565b90505f82600954610cba9190611a35565b90505f610cc78284611a48565b90505f81600854610cd89190611a67565b90505f8111610d1f5760405162461bcd60e51b8152602060048201526013602482015272125b9cdd59999a58da595b9d081bdd5d1c1d5d606a1b6044820152606401610655565b60088290556009839055335f908152600b602052604081208054839290610d47908490611a35565b925050819055508060125f828254610d5f9190611a35565b9250508190555034600e5f828254610d779190611a35565b90915550610d869050336116b9565b337f70b296d5204891ec3c297a083813d626f5208489f622fd5fe4c920787c0a47e760013484610db4610b91565b610dbc61082f565b6040805195151586526020860194909452928401919091526060830152608082015260a00160405180910390a2505050505050565b6002546001600160a01b03163314610e395760405162461bcd60e51b815260206004820152600b60248201526a4f6e6c79206f7261636c6560a81b6044820152606401610655565b5f600a5460ff166002811115610e5157610e51611728565b14610e915760405162461bcd60e51b815260206004820152601060248201526f105b1c9958591e481c995cdbdb1d995960821b6044820152606401610655565b6001816002811115610ea557610ea5611728565b1480610ec257506002816002811115610ec057610ec0611728565b145b610f005760405162461bcd60e51b815260206004820152600f60248201526e496e76616c6964206f7574636f6d6560881b6044820152606401610655565b600a805482919061ff001916610100836002811115610f2157610f21611728565b0217905550600a805460ff191660021790556040517fcbbe35de088a5a787855818a0fda296aeb95f616e7b99c7dcb0bf96b5697e22b90610f659083904290611ab2565b60405180910390a150565b5f600a5460ff166002811115610f8857610f88611728565b14610fa55760405162461bcd60e51b8152600401610655906119b3565b6006544210610fc65760405162461bcd60e51b8152600401610655906119de565b5f34116110065760405162461bcd60e51b815260206004820152600e60248201526d26bab9ba1039b2b73210282420a960911b6044820152606401610655565b5f61271061101560c834611a18565b61101f9190611a48565b90505f61102c8234611a67565b905081600f5f82825461103f9190611a35565b90915550506009546008545f9161105591611a18565b90505f826008546110669190611a35565b90505f6110738284611a48565b90505f816009546110849190611a67565b90505f81116110cb5760405162461bcd60e51b8152602060048201526013602482015272125b9cdd59999a58da595b9d081bdd5d1c1d5d606a1b6044820152606401610655565b60088390556009829055335f908152600c6020526040812080548392906110f3908490611a35565b925050819055508060135f82825461110b9190611a35565b9250508190555034600e5f8282546111239190611a35565b909155506111329050336116b9565b337f70b296d5204891ec3c297a083813d626f5208489f622fd5fe4c920787c0a47e75f3484610db4610b91565b5f8061271061116f60c885611a18565b6111799190611a48565b90505f6111868285611a67565b90505f6009546008546111999190611a18565b90505f826008546111aa9190611a35565b90505f6111b78284611a48565b9050806009546108da9190611a67565b6002600a5460ff1660028111156111e0576111e0611728565b1461121c5760405162461bcd60e51b815260206004820152600c60248201526b139bdd081c995cdbdb1d995960a21b6044820152606401610655565b335f908152600d602052604090205460ff161561126d5760405162461bcd60e51b815260206004820152600f60248201526e105b1c9958591e4818db185a5b5959608a1b6044820152606401610655565b5f6001600a54610100900460ff16600281111561128c5761128c611728565b036112a65750335f908152600b60205260409020546112b7565b50335f908152600c60205260409020545b5f81116112fa5760405162461bcd60e51b81526020600482015260116024820152704e6f2077696e6e696e672073686172657360781b6044820152606401610655565b335f908152600d60205260408120805460ff19166001908117909155479190600a54610100900460ff16600281111561133557611335611728565b1461134257601354611346565b6012545b90505f816113548585611a18565b61135e9190611a48565b604051909150339082156108fc029083905f818181858888f1935050505015801561138b573d5f803e3d5ffd5b5060405181815233907f1a31e733a172afcf46074b3106c17f0c298e226442682a03c1e99ce256139ec29060200160405180910390a250505050565b5f600a5460ff1660028111156113df576113df611728565b146113fc5760405162461bcd60e51b8152600401610655906119b3565b600654421061141d5760405162461bcd60e51b8152600401610655906119de565b335f908152600c60205260409020548111156114715760405162461bcd60e51b8152602060048201526013602482015272496e73756666696369656e742073686172657360681b6044820152606401610655565b5f6009546008546114829190611a18565b90505f826009546114939190611a35565b90505f6114a08284611a48565b90505f816008546114b19190611a67565b90505f6127106114c260c884611a18565b6114cc9190611a48565b90505f6114d98284611a67565b905081600f5f8282546114ec9190611a35565b909155505060088490556009859055335f908152600c602052604081208054899290611519908490611a67565b925050819055508660135f8282546115319190611a67565b9091555050604051339082156108fc029083905f818181858888f19350505050158015611560573d5f803e3d5ffd5b50337fb4b79f6f79e53b0740155e9e6cfddecf7e56fff4cdc26359fd1a536253d9bf615f89846107f1610b91565b5f546001600160a01b031633146115d65760405162461bcd60e51b815260206004820152600c60248201526b4f6e6c7920666163746f727960a01b6044820152606401610655565b4281116116255760405162461bcd60e51b815260206004820152601760248201527f456e642074696d65206d757374206265206675747572650000000000000000006044820152606401610655565b600180546001600160a01b03808c166001600160a01b03199283161790925560028054928b16929091169190911790556003611662878983611b2b565b506004611670858783611b2b565b50600561167e838583611b2b565b506006555050426007555050600a805460ff191690555050683635c9adc5dea0000060088190556009555050565b60058054610b0590611a7a565b6001600160a01b0381165f9081526011602052604090205460ff1661170e576001600160a01b0381165f908152601160205260408120805460ff19166001179055601080549161170883611be7565b91905055505b50565b5f60208284031215611721575f80fd5b5035919050565b634e487b7160e01b5f52602160045260245ffd5b6003811061170e57634e487b7160e01b5f52602160045260245ffd5b602081016117658361173c565b91905290565b5f81518084525f5b8181101561178f57602081850181015186830182015201611773565b505f602082860101526020601f19601f83011685010191505092915050565b5f6101608083526117c18184018f61176b565b905082810360208401526117d5818e61176b565b905082810360408401526117e9818d61176b565b91505060018060a01b038a1660608301528860808301528760a08301528660c08301528560e0830152846101008301526118228461173c565b836101208301526118328361173c565b826101408301529c9b505050505050505050505050565b602081525f61185b602083018461176b565b9392505050565b80356001600160a01b0381168114611878575f80fd5b919050565b5f6020828403121561188d575f80fd5b61185b82611862565b5f602082840312156118a6575f80fd5b81356003811061185b575f80fd5b5f8083601f8401126118c4575f80fd5b50813567ffffffffffffffff8111156118db575f80fd5b6020830191508360208285010111156118f2575f80fd5b9250929050565b5f805f805f805f805f60c08a8c031215611911575f80fd5b61191a8a611862565b985061192860208b01611862565b975060408a013567ffffffffffffffff80821115611944575f80fd5b6119508d838e016118b4565b909950975060608c0135915080821115611968575f80fd5b6119748d838e016118b4565b909750955060808c013591508082111561198c575f80fd5b506119998c828d016118b4565b9a9d999c50979a9699959894979660a00135949350505050565b6020808252601190820152704d61726b6574206e6f742061637469766560781b604082015260600190565b6020808252600c908201526b13585c9ad95d08195b99195960a21b604082015260600190565b634e487b7160e01b5f52601160045260245ffd5b8082028115828204841417611a2f57611a2f611a04565b92915050565b80820180821115611a2f57611a2f611a04565b5f82611a6257634e487b7160e01b5f52601260045260245ffd5b500490565b81810381811115611a2f57611a2f611a04565b600181811c90821680611a8e57607f821691505b602082108103611aac57634e487b7160e01b5f52602260045260245ffd5b50919050565b60408101611abf8461173c565b9281526020015290565b634e487b7160e01b5f52604160045260245ffd5b601f821115611b26575f81815260208120601f850160051c81016020861015611b035750805b601f850160051c820191505b81811015611b2257828155600101611b0f565b5050505b505050565b67ffffffffffffffff831115611b4357611b43611ac9565b611b5783611b518354611a7a565b83611add565b5f601f841160018114611b88575f8515611b715750838201355b5f19600387901b1c1916600186901b178355611be0565b5f83815260209020601f19861690835b82811015611bb85786850135825560209485019460019092019101611b98565b5086821015611bd4575f1960f88860031b161c19848701351681555b505060018560011b0183555b5050505050565b5f60018201611bf857611bf8611a04565b506001019056fea2646970667358221220fa2fbfe26e8530de25e9890b380ca5246044abfef57d2b99bbc10d8a674afc8364736f6c63430008140033","linkReferences":{}},"methodIdentifiers":{"BPS()":"249d39e9","FEE_BPS()":"bf333f2c","INITIAL_LIQUIDITY()":"55097bf1","buyNo()":"a9709c0c","buyYes()":"9e075449","category()":"ef430aa6","claimWinnings()":"b401faf1","createdAt()":"cf09e0d0","creator()":"02d05d3f","description()":"7284e416","endTime()":"3197cbb6","estimateBuyNo(uint256)":"aa3c9012","estimateBuyYes(uint256)":"1cbe99f6","factory()":"c45a0155","getMarketInfo()":"23341a05","getNoPrice()":"12b01b16","getYesPrice()":"8779086f","hasClaimed(address)":"73b2e80e","initialize(address,address,string,string,string,uint256)":"ded96d48","isParticipant(address)":"929066f5","noPool()":"a3b5afb1","noShares(address)":"56bc793e","oracle()":"7dc0d1d0","participantCount()":"362f04c0","question()":"3fad9ae0","resolve(uint8)":"a0270dbc","resolvedOutcome()":"1c371e2b","sellNo(uint256)":"c545ab54","sellYes(uint256)":"11f957fd","status()":"200d2ed2","totalFees()":"13114a9d","totalNoSharesMinted()":"0ecc4ab8","totalVolume()":"5f81a57c","totalYesSharesMinted()":"649db1eb","yesPool()":"6f1d4ea4","yesShares(address)":"818fa941"},"id":0}