{"abi":[{"type":"constructor","inputs":[{"name":"_requiredConfirmations","type":"uint256","internalType":"uint256"}],"stateMutability":"nonpayable"},{"type":"function","name":"DISPUTE_PERIOD","inputs":[],"outputs":[{"name":"","type":"uint256","internalType":"uint256"}],"stateMutability":"view"},{"type":"function","name":"addReporter","inputs":[{"name":"_reporter","type":"address","internalType":"address"}],"outputs":[],"stateMutability":"nonpayable"},{"type":"function","name":"admin","inputs":[],"outputs":[{"name":"","type":"address","internalType":"address"}],"stateMutability":"view"},{"type":"function","name":"emergencyResolve","inputs":[{"name":"_market","type":"address","internalType":"address payable"},{"name":"_outcome","type":"uint8","internalType":"enum PredictionMarket.Outcome"}],"outputs":[],"stateMutability":"nonpayable"},{"type":"function","name":"finalizeResolution","inputs":[{"name":"_market","type":"address","internalType":"address payable"}],"outputs":[],"stateMutability":"nonpayable"},{"type":"function","name":"getResolutionStatus","inputs":[{"name":"_market","type":"address","internalType":"address payable"}],"outputs":[{"name":"_yesVotes","type":"uint256","internalType":"uint256"},{"name":"_noVotes","type":"uint256","internalType":"uint256"},{"name":"_finalized","type":"bool","internalType":"bool"},{"name":"_disputeDeadline","type":"uint256","internalType":"uint256"}],"stateMutability":"view"},{"type":"function","name":"isReporter","inputs":[{"name":"","type":"address","internalType":"address"}],"outputs":[{"name":"","type":"bool","internalType":"bool"}],"stateMutability":"view"},{"type":"function","name":"removeReporter","inputs":[{"name":"_reporter","type":"address","internalType":"address"}],"outputs":[],"stateMutability":"nonpayable"},{"type":"function","name":"reportOutcome","inputs":[{"name":"_market","type":"address","internalType":"address payable"},{"name":"_outcome","type":"uint8","internalType":"enum PredictionMarket.Outcome"}],"outputs":[],"stateMutability":"nonpayable"},{"type":"function","name":"reporterCount","inputs":[],"outputs":[{"name":"","type":"uint256","internalType":"uint256"}],"stateMutability":"view"},{"type":"function","name":"requiredConfirmations","inputs":[],"outputs":[{"name":"","type":"uint256","internalType":"uint256"}],"stateMutability":"view"},{"type":"function","name":"resolutions","inputs":[{"name":"","type":"address","internalType":"address"}],"outputs":[{"name":"yesVotes","type":"uint256","internalType":"uint256"},{"name":"noVotes","type":"uint256","internalType":"uint256"},{"name":"finalized","type":"bool","internalType":"bool"},{"name":"disputeDeadline","type":"uint256","internalType":"uint256"}],"stateMutability":"view"},{"type":"event","name":"DisputeRaised","inputs":[{"name":"market","type":"address","indexed":true,"internalType":"address"},{"name":"disputer","type":"address","indexed":true,"internalType":"address"}],"anonymous":false},{"type":"event","name":"MarketFinalized","inputs":[{"name":"market","type":"address","indexed":true,"internalType":"address"},{"name":"outcome","type":"uint8","indexed":false,"internalType":"enum PredictionMarket.Outcome"}],"anonymous":false},{"type":"event","name":"OutcomeReported","inputs":[{"name":"market","type":"address","indexed":true,"internalType":"address"},{"name":"reporter","type":"address","indexed":true,"internalType":"address"},{"name":"outcome","type":"uint8","indexed":false,"internalType":"enum PredictionMarket.Outcome"}],"anonymous":false},{"type":"event","name":"ReporterAdded","inputs":[{"name":"reporter","type":"address","indexed":true,"internalType":"address"}],"anonymous":false},{"type":"event","name":"ReporterRemoved","inputs":[{"name":"reporter","type":"address","indexed":true,"internalType":"address"}],"anonymous":false}],"bytecode":{"object":"0x608060405234801561000f575f80fd5b50604051610b7e380380610b7e83398101604081905261002e91610064565b5f80546001600160a01b0319163390811782558152600160208190526040909120805460ff19168217905560025560035561007b565b5f60208284031215610074575f80fd5b5051919050565b610af6806100885f395ff3fe608060405234801561000f575f80fd5b50600436106100b1575f3560e01c806382e717f71161006e57806382e717f7146101ce578063850e3c48146101e5578063a5bbe22b146101ee578063a74269e6146101f7578063dd8755f21461020a578063f851a4401461021d575f80fd5b8063044ad7be146100b557806328a9476c146100ec578063370d38a014610101578063567e5a6c146101145780635de5c2121461017f57806369bfe1f514610192575b5f80fd5b6100d76100c33660046109ac565b60016020525f908152604090205460ff1681565b60405190151581526020015b60405180910390f35b6100ff6100fa3660046109ac565b610247565b005b6100ff61010f3660046109ce565b610415565b6101596101223660046109ac565b6001600160a01b03165f9081526004602081905260409091206001810154600282015460038301549290930154909360ff90921691565b6040805194855260208501939093529015159183019190915260608201526080016100e3565b6100ff61018d3660046109ac565b6104ef565b6101596101a03660046109ac565b600460208190525f9182526040909120600181015460028201546003830154929093015490929160ff169084565b6101d760035481565b6040519081526020016100e3565b6101d760025481565b6101d7610e1081565b6100ff6102053660046109ce565b610629565b6100ff6102183660046109ac565b6108a4565b5f5461022f906001600160a01b031681565b6040516001600160a01b0390911681526020016100e3565b6001600160a01b0381165f908152600460205260409020600381015460ff16156102ac5760405162461bcd60e51b8152602060048201526011602482015270105b1c9958591e48199a5b985b1a5e9959607a1b60448201526064015b60405180910390fd5b5f8160040154116102ff5760405162461bcd60e51b815260206004820152601860248201527f4e6f7420656e6f75676820636f6e6669726d6174696f6e73000000000000000060448201526064016102a3565b806004015442101561034b5760405162461bcd60e51b81526020600482015260156024820152744469737075746520706572696f642061637469766560581b60448201526064016102a3565b5f816002015482600101541061036357506001610367565b5060025b60038201805460ff19166001179055604051632809c36f60e21b81526001600160a01b0384169063a0270dbc906103a2908490600401610a1c565b5f604051808303815f87803b1580156103b9575f80fd5b505af11580156103cb573d5f803e3d5ffd5b50505050826001600160a01b03167fb53cfd8e5525a6e8e8049fdb4773cb4ecc647cff0db7c19ea70f82dbc811acd4826040516104089190610a1c565b60405180910390a2505050565b5f546001600160a01b0316331461043e5760405162461bcd60e51b81526004016102a390610a42565b6001600160a01b0382165f8181526004602081905260409182902060038101805460ff191660011790559151632809c36f60e21b815291929163a0270dbc9161048991869101610a1c565b5f604051808303815f87803b1580156104a0575f80fd5b505af11580156104b2573d5f803e3d5ffd5b50505050826001600160a01b03167fb53cfd8e5525a6e8e8049fdb4773cb4ecc647cff0db7c19ea70f82dbc811acd4836040516104089190610a1c565b5f546001600160a01b031633146105185760405162461bcd60e51b81526004016102a390610a42565b6001600160a01b0381165f9081526001602052604090205460ff1661056e5760405162461bcd60e51b815260206004820152600c60248201526b2737ba103932b837b93a32b960a11b60448201526064016102a3565b5f546001600160a01b03908116908216036105c15760405162461bcd60e51b815260206004820152601360248201527221b0b73737ba103932b6b7bb329030b236b4b760691b60448201526064016102a3565b6001600160a01b0381165f908152600160205260408120805460ff1916905560028054916105ee83610a7a565b90915550506040516001600160a01b038216907ff125aa5e6cb22c17ea0de4e1f86d2ff289ddd6a37e791b9ad29d0091cba06ac8905f90a250565b335f9081526001602052604090205460ff166106785760405162461bcd60e51b815260206004820152600e60248201526d2737ba1030903932b837b93a32b960911b60448201526064016102a3565b600181600281111561068c5761068c610a08565b14806106a9575060028160028111156106a7576106a7610a08565b145b6106e75760405162461bcd60e51b815260206004820152600f60248201526e496e76616c6964206f7574636f6d6560881b60448201526064016102a3565b6001600160a01b0382165f908152600460205260409020600381015460ff16156107475760405162461bcd60e51b8152602060048201526011602482015270105b1c9958591e48199a5b985b1a5e9959607a1b60448201526064016102a3565b335f9081526020829052604081205460ff16600281111561076a5761076a610a08565b146107a75760405162461bcd60e51b815260206004820152600d60248201526c105b1c9958591e481d9bdd1959609a1b60448201526064016102a3565b335f908152602082905260409020805483919060ff191660018360028111156107d2576107d2610a08565b021790555060018260028111156107eb576107eb610a08565b0361080b57600181018054905f61080183610a8f565b9190505550610822565b600281018054905f61081c83610a8f565b91905055505b336001600160a01b0316836001600160a01b03167fff0d00456ea5c112a2034551ca683fd37ae75884a0ce41505308d5b3236ba7cb846040516108659190610a1c565b60405180910390a360035481600101541015806108885750600354816002015410155b1561089f57610899610e1042610aa7565b60048201555b505050565b5f546001600160a01b031633146108cd5760405162461bcd60e51b81526004016102a390610a42565b6001600160a01b0381165f9081526001602052604090205460ff16156109285760405162461bcd60e51b815260206004820152601060248201526f20b63932b0b23c903932b837b93a32b960811b60448201526064016102a3565b6001600160a01b0381165f9081526001602081905260408220805460ff19169091179055600280549161095a83610a8f565b90915550506040516001600160a01b038216907f52824c4a4d431c73d6d24a91f775d722860111c6d30da30b0b21e062fb4c7365905f90a250565b6001600160a01b03811681146109a9575f80fd5b50565b5f602082840312156109bc575f80fd5b81356109c781610995565b9392505050565b5f80604083850312156109df575f80fd5b82356109ea81610995565b91506020830135600381106109fd575f80fd5b809150509250929050565b634e487b7160e01b5f52602160045260245ffd5b6020810160038310610a3c57634e487b7160e01b5f52602160045260245ffd5b91905290565b6020808252600a908201526927b7363c9030b236b4b760b11b604082015260600190565b634e487b7160e01b5f52601160045260245ffd5b5f81610a8857610a88610a66565b505f190190565b5f60018201610aa057610aa0610a66565b5060010190565b80820180821115610aba57610aba610a66565b9291505056fea2646970667358221220ab31b71416cd3f5e2d2c0708898c4ef054ac5971a6cf298c4fd680be9c06b2e164736f6c63430008140033","linkReferences":{}},"methodIdentifiers":{"DISPUTE_PERIOD()":"a5bbe22b","addReporter(address)":"dd8755f2","admin()":"f851a440","emergencyResolve(address,uint8)":"370d38a0","finalizeResolution(address)":"28a9476c","getResolutionStatus(address)":"567e5a6c","isReporter(address)":"044ad7be","removeReporter(address)":"5de5c212","reportOutcome(address,uint8)":"a74269e6","reporterCount()":"850e3c48","requiredConfirmations()":"82e717f7","resolutions(address)":"69bfe1f5"},"id":2}